:020000040800F2
:100000000080002079170008ED160008F31600089C
:10001000F9160008FF160008051700080000000088
:100020000000000000000000000000000B170008A6
:1000300019170008000000002717000835170008EE
:10004000C9170008C9170008C9170008C917000810
:10005000C9170008C9170008C9170008C917000800
:10006000C9170008C9170008C9170008C9170008F0
:10007000C9170008C9170008C9170008C9170008E0
:10008000C917000800000000C9170008C9170008B8
:10009000C9170008C9170008C9170008C9170008C0
:1000A000C9170008C9170008C9170008C9170008B0
:1000B000C9170008C9170008C9170008C9170008A0
:1000C000C9170008C9170008C9170008C917000890
:1000D000C9170008C9170008C9170008C917000880
:1000E000C9170008C9170008C9170008C917000870
:1000F000C9170008C9170008C91700080000000048
:1001000000000000C917000800000000C91700081F
:10011000C91700080000000041170008C9170008AF
:10012000C9170008C9170008C9170008C91700082F
:10013000C91700080000000000000000C9170008EF
:10014000C9170008C91700080000000000000000DF
:10015000000000000000000000000000000000009F
:10016000000000000000000000000000C9170008A7
:10017000C917000800000000000000000000000097
:1001800000000000C9170008000000000000000087
:10019000000000000000000000000000000000005F
:1001A0000000000000000000C9170008C91700087F
:1001B000C9170008C9170008C91700080000000087
:1001C00000000000C9170008000000000000000047
:0801D000C9170008C917000857
:1001D80010B5054C237833B9044B13B10448AFF379
:1001E80000800123237010BD0C00002000000000D7
:1001F8008044000808B5034B1BB103490348AFF31B
:10020800008008BD000000001000002080440008A5
:1002180081F0004102E000BF83F0004330B54FEAAF
:1002280041044FEA430594EA050F08BF90EA020F1C
:100238001FBF54EA000C55EA020C7FEA645C7FEAAF
:10024800655C00F0E2804FEA5454D4EB5555B8BFD2
:100258006D420CDD2C4480EA020281EA030382EA43
:10026800000083EA010180EA020281EA0303362DD5
:1002780088BF30BD11F0004F4FEA01314FF4801CA8
:100288004CEA113102D0404261EB410113F0004FBA
:100298004FEA03334CEA133302D0524263EB430371
:1002A80094EA050F00F0A780A4F10104D5F1200E0F
:1002B8000DDB02FA0EFC22FA05F2801841F100016A
:1002C80003FA0EF2801843FA05F359410EE0A5F13E
:1002D80020050EF1200E012A03FA0EFC28BF4CF06F
:1002E800020C43FA05F3C01851EBE37101F0004525
:1002F80007D54FF0000EDCF1000C7EEB00006EEB32
:100308000101B1F5801F1BD3B1F5001F0CD34908BB
:100318005FEA30004FEA3C0C04F101044FEA445212
:1003280012F5800F80F09A80BCF1004F08BF5FEA99
:10033800500C50F1000041EB045141EA050130BD79
:100348005FEA4C0C404141EB0101013C28BFB1F58B
:10035800801FE9D291F0000F04BF01460020B1FAD6
:1003680081F308BF2033A3F10B03B3F120020CDAA9
:100378000C3208DD02F1140CC2F10C0201FA0CF087
:1003880021FA02F10CE002F11402D8BFC2F1200CEC
:1003980001FA02F120FA0CFCDCBF41EA0C019040A2
:1003A800E41AA2BF01EB0451294330BD6FEA0404EB
:1003B8001F3C1CDA0C340EDC04F11404C4F12002D6
:1003C80020FA04F001FA02F340EA030021FA04F3E8
:1003D80045EA030130BDC4F10C04C4F1200220FA3F
:1003E80002F001FA04F340EA0300294630BD21FA7D
:1003F80004F0294630BD94F0000F83F4801306BF43
:1004080081F480110134013D4EE77FEA645C18BF36
:100418007FEA655C29D094EA050F08BF90EA020FCD
:1004280005D054EA000C04BF1946104630BD91EAC5
:10043800030F1EBF0021002030BD5FEA545C05D1C8
:100448004000494128BF41F0004130BD14F5800407
:100458003CBF01F5801130BD01F0004545F0FE417B
:1004680041F470014FF0000030BD7FEA645C1ABFB0
:10047800194610467FEA655C1CBF0B46024650EAE7
:10048800013406BF52EA033591EA030F41F4002113
:1004980030BD00BF90F0000F04BF0021704730B599
:1004A8004FF4806404F132044FF000054FF000016E
:1004B80050E700BF90F0000F04BF0021704730B52F
:1004C8004FF4806404F1320410F0004548BF404204
:1004D8004FF000013EE700BF42004FEAE2014FEA59
:1004E80031014FEA02701FBF12F07F4393F07F4F34
:1004F80081F06051704732F07F4208BF704793F037
:100508007F4F04BF41F40021704730B54FF4607449
:1005180001F0004521F000411CE700BF50EA01024C
:1005280008BF704730B54FF000050AE050EA0102F5
:1005380008BF704730B511F0004502D5404261EB65
:1005480041014FF4806404F132045FEA915C3FF4A6
:10055800D8AE4FF003025FEADC0C18BF03325FEA43
:10056800DC0C18BF033202EBDC02C2F1200300FAF4
:1005780003FC20FA02F001FA03FE40EA0E0021FA19
:1005880002F11444BDE600BF70B54FF0FF0C4CF407
:10059800E06C1CEA11541DBF1CEA135594EA0C0FB9
:1005A80095EA0C0F00F0DEF82C4481EA030621EAF4
:1005B8004C5123EA4C5350EA013518BF52EA03352F
:1005C80041F4801143F4801338D0A0FB02CE4FF0E1
:1005D8000005E1FB02E506F00042E0FB03E54FF011
:1005E8000006E1FB03569CF0000F18BF4EF0010E09
:1005F800A4F1FF04B6F5007F64F5407404D25FEA05
:100608004E0E6D4146EB060642EAC62141EA5551B7
:100618004FEAC52040EA5E504FEACE2EB4F1FD0CF9
:1006280088BFBCF5E06F1ED8BEF1004F08BF5FEA77
:10063800500E50F1000041EB045170BD06F0004629
:1006480046EA010140EA020081EA0301B4EB5C04D6
:10065800C2BFD4EB0C0541EA045170BD41F48011CE
:100668004FF0000E013C00F3AB8014F1360FDEBFF3
:10067800002001F0004170BDC4F10004203C35DACF
:100688000C341BDC04F11404C4F1200500FA05F352
:1006980020FA04F001FA05F240EA020001F00042F3
:1006A80021F0004110EBD37021FA04F642EB060169
:1006B8005EEA430E08BF20EAD37070BDC4F10C0493
:1006C800C4F1200500FA04F320FA05F001FA04F257
:1006D80040EA020001F0004110EBD37041F1000143
:1006E8005EEA430E08BF20EAD37070BDC4F120054E
:1006F80000FA05F24EEA020E20FA04F301FA05F2B6
:1007080043EA020321FA04F001F0004121FA04F25D
:1007180020EA020000EBD3705EEA430E08BF20EA2D
:10072800D37070BD94F0000F0FD101F00046400067
:1007380041EB010111F4801F08BF013CF7D041EAE9
:10074800060195F0000F18BF704703F000465200ED
:1007580043EB030313F4801F08BF013DF7D043EABE
:100768000603704794EA0C0F0CEA135518BF95EA74
:100778000C0F0CD050EA410618BF52EA4306D1D1FB
:1007880081EA030101F000414FF0000070BD50EA1A
:10079800410606BF1046194652EA430619D094EAA4
:1007A8000C0F02D150EA013613D195EA0C0F05D18E
:1007B80052EA03361CBF104619460AD181EA0301E2
:1007C80001F0004141F0FE4141F470014FF000009A
:1007D80070BD41F0FE4141F4780170BD70B54FF035
:1007E800FF0C4CF4E06C1CEA11541DBF1CEA1355B5
:1007F80094EA0C0F95EA0C0F00F0A7F8A4EB050497
:1008080081EA030E52EA03354FEA013100F088808D
:100818004FEA03334FF0805545EA131343EA126356
:100828004FEA022245EA111545EA10654FEA00260B
:100838000EF000419D4208BF964244F1FD0404F5C4
:10084800407402D25B084FEA3202B61A65EB030520
:100858005B084FEA32024FF480104FF4002CB6EBDD
:10086800020E75EB030E22BFB61A754640EA0C005D
:100878005B084FEA3202B6EB020E75EB030E22BF9D
:10088800B61A754640EA5C005B084FEA3202B6EBDE
:10089800020E75EB030E22BFB61A754640EA9C009D
:1008A8005B084FEA3202B6EB020E75EB030E22BF6D
:1008B800B61A754640EADC0055EA060E18D04FEA2B
:1008C800051545EA16754FEA06164FEAC30343EACB
:1008D80052734FEAC2025FEA1C1CC0D111F4801F98
:1008E8000BD141EA00014FF000004FF0004CB6E791
:1008F80011F4801F04BF01430020B4F1FD0C88BF30
:10090800BCF5E06F3FF6AFAEB5EB030C04BFB6EB3A
:10091800020C5FEA500C50F1000041EB045170BD2D
:100928000EF0004E4EEA113114EB5C04C2BFD4EB5A
:100938000C0541EA045170BD41F480114FF0000EDE
:10094800013C90E645EA060E8DE60CEA135594EA5A
:100958000C0F08BF95EA0C0F3FF43BAF94EA0C0F5D
:100968000AD150EA01347FF434AF95EA0C0F7FF4D2
:1009780025AF104619462CE795EA0C0F06D152EA26
:1009880003353FF4FDAE1046194622E750EA41060A
:1009980018BF52EA43067FF4C5AE50EA41047FF41B
:1009A8000DAF52EA43057FF4EBAE12E74FF0FF3C80
:1009B80006E000BF4FF0010C02E000BF4FF0010C51
:1009C8004DF804CD4FEA410C7FEA6C5C4FEA430CCA
:1009D80018BF7FEA6C5C1BD001B050EA410C0CBF19
:1009E80052EA430C91EA030F02BF90EA020F00207B
:1009F800704710F1000F91EA030F58BF994208BFE2
:100A080090422CBFD8176FEAE37040F0010070479E
:100A18004FEA410C7FEA6C5C02D150EA013C07D1F5
:100A28004FEA430C7FEA6C5CD6D152EA033CD3D040
:100A38005DF8040B704700BF8446104662468C463A
:100A48001946634600E000BF01B5FFF7B7FF00286D
:100A580048BF10F1000F01BD4DF808EDFFF7F4FF96
:100A68000CBF012000205DF808FB00BF4DF808ED21
:100A7800FFF7EAFF34BF012000205DF808FB00BF44
:100A88004DF808EDFFF7E0FF94BF012000205DF866
:100A980008FB00BF4DF808EDFFF7CEFF94BF01201B
:100AA80000205DF808FB00BF4DF808EDFFF7C4FF14
:100AB80034BF012000205DF808FB00BF4A0011D2B6
:100AC80012F5001211D20DD56FF47873B3EB6252A0
:100AD8000ED44FEAC12343F0004343EA505323FAAC
:100AE80002F070474FF00000704750EA013002D121
:100AF8004FF0FF3070474FF00000704780B500AFEF
:100B080000F05FFE00F034F800F038F900F07CF8EF
:100B180000F0C0F800F0FCF8642000F0C3FE1248B2
:100B280001F04CF90346002B01D000F0EFFC002245
:100B380001210D4801F0AEF90346002B01D000F069
:100B4800E5FC00224FF40071074801F0A3F90346C1
:100B5800002B01D000F0DAFC00F038FA00F09EF922
:100B6800024803F0F3F8FEE728000020F000002018
:100B780080B594B000AF07F1180338220021184659
:100B880003F072FC3B1D00221A605A609A60DA601A
:100B98001A61002001F0D0FC0223BB614FF480737E
:100BA8007B624023BB6202237B630223BB63042373
:100BB800FB6355233B6402237B640223BB6402234B
:100BC800FB6407F11803184601F05AFD0346002B91
:100BD80001D000F09BFC0F237B600323BB60002344
:100BE800FB6000233B6100237B613B1D0421184609
:100BF80002F05EF80346002B01D000F087FC00BF2E
:100C08005037BD4680BD000080B500AF1F4B204A5D
:100C18001A601E4B00225A601C4B00229A601B4B24
:100C28000022DA60194B01221A74184B00225A74F8
:100C3800164B00229A74154B14225A61134B012249
:100C48009A61124B0E22DA61104B02221A620F4B84
:100C580014225A620D4B01229A620C4B0E22DA6260
:100C68000A4B02221A63094B00225A63074B0022DF
:100C78009A63064B0022DA63044800F045FF0346F6
:100C8800002B01D000F042FC00BF80BD28000020EE
:100C98000064004080B500AF1B4B1C4A1A601A4B19
:100CA8004FF482725A60184B00229A60164B4FF428
:100CB800E062DA60144B00221A61134B00225A6179
:100CC800114B4FF400729A610F4B2022DA610E4BE0
:100CD80000221A620C4B00225A620B4B00229A62C5
:100CE800094B0722DA62084B00221A63064B0022DE
:100CF8005A63054802F0B0FB0346002B01D000F010
:100D080005FC00BF80BD00BF8C0000200030014002
:100D180080B584B000AF3B1D00221A605A609A600B
:100D2800144B154A1A60134BA9225A60114B002222
:100D38009A60104B42F20F72DA600E4B00229A61F1
:100D48000C4802F0ABFF0346002B01D000F0DEFB9D
:100D580000237B600023FB603B1D1946054803F018
:100D680097FA0346002B01D000F0D0FB00BF1037E4
:100D7800BD4680BDF00000200010004080B588B05E
:100D880000AF07F10C0300221A605A609A60DA601B
:100D98001A61234BDB6C224A43F00103D364204BD6
:100DA800DB6C03F00103BB60BB681D4BDB6C1C4AAA
:100DB80043F00203D3641A4BDB6C03F002037B603D
:100DC8007B68012210214FF0904001F09DFB00222A
:100DD8004FF40041134801F097FB1023FB600123F7
:100DE8003B6100237B610023BB6107F10C031946BB
:100DF8004FF0904001F006FA4FF40043FB600123E6
:100E08003B6100237B610023BB6107F10C0319469A
:100E1800044801F0F7F900BF2037BD4680BD00BF88
:100E2800001002400004004880B487B000AF78602A
:100E38003960FF23FB7500233B6121E03B697A6839
:100E480013441A78FB7D5340FB750023FB6011E0C7
:100E580097F91730002B07DAFB7D5B00FB75FB7DEC
:100E680083F01D03FB7502E0FB7D5B00FB75FB68EF
:100E78000133FB60FB68072BEADD3B6901333B610B
:100E88003A693B689A42D9DBFB7DDB43DBB2184603
:100E98001C37BD465DF8047B7047000080B588B0FC
:100EA80000AF2E4B00225A762C4B06229A762B4BFB
:100EB8000622DA76294B00221A77284B31225A77F4
:100EC800264B41229A77254A537E43F003035376F3
:100ED800224A537E43F00C035376204A937E43F014
:100EE800600393761D4A937E052161F3030393768D
:100EF8001A4AD37E022161F34613D376174AD37E6A
:100F0800052161F30303D376144A537F43F00703A3
:100F18005377124A937F43F0070393771F233B7459
:100F28000E4B5B7E7B740D4B9B7EBB740B4BDB7E49
:100F3800FB740A4B1B7F3B75084B5B7F7B75074B2C
:100F48009B7FBB75394607F110030722184600F04E
:100F580045F900BF2037BD4680BD00BFA80100206D
:100F680080B588B000AF8B233B74394607F1100376
:100F78000D22184600F032F9BA78134B1A707A78B5
:100F8800114B5A703A79104B9A70FA780E4BDA7006
:100F9800BA790D4B1A717A790B4B5A713A7A0A4B16
:100FA8009A71FA79084BDA71BA7A074B1A727A7A17
:100FB800054B5A723A7B044B9A72FA7A024BDA72F0
:100FC80000BF2037BD4680BD1802002080B400AFA6
:100FD8002D4B4FF4BA721A602B4B00225A602A4BE1
:100FE80000229A60284B4FF40022DA60264B002238
:100FF8001A61254B00225A61234B00229A61224B29
:101008000022DA61204B00221A62204B4FF4BC7296
:101018001A601E4B00225A601C4B00229A601B4B20
:101028004FF40022DA60194B00221A61174B002294
:101038005A61164B00229A61144B0022DA61134B55
:1010480000221A62124B4FF4BE721A60104B002233
:101058005A600F4B00229A600D4B4FF40022DA6061
:101068000B4B00221A610A4B00225A61084B0022DE
:101078009A61074B0022DA61054B00221A6200BF11
:10108800BD465DF8047B70473C01002060010020EC
:101098008401002080B500AF444BB3F902301846F4
:1010A80000F0BEF803461A46414B1A813F4BB3F98C
:1010B8000030184600F0B4F803461A463D4B1A8132
:1010C8003A4BB3F90430184600F0AAF803461A461A
:1010D800394B1A81354BB3F90A30184600F020F91C
:1010E80003461A46324B9A80304BB3F906301846FD
:1010F80000F086F903461A462E4B9A802B4BB3F91B
:101108000830184600F00CF903461A462A4B9A8014
:101118002A4B1B7803F00F03D9B2254A937A61F35F
:1011280003039372254B1B7803F00F03D9B2214AAE
:10113800937A61F303039372204B1B7803F00F0338
:10114800D9B21D4A937A61F3030393721B4B1B7840
:101158000133DAB2194B1A7007211948FFF764FEF8
:1011680003461A46124BDA7207211648FFF75CFE4F
:1011780003461A460F4BDA7207211348FFF754FE4D
:1011880003461A460C4BDA720D4A1049104800F013
:101198003DFE0C4A0F490E4800F038FE0A4A0E4937
:1011A8000B4800F033FE00BF80BD00BF18020020CE
:1011B80024020020340200204402002054020020AF
:1011C8002802002038020020480200203C010020AC
:1011D80028000020600100208401002080B586B02E
:1011E80002AFF860B9601346FB80002210214FF06F
:1011F800904001F089F9FB884FF47A720092BA683E
:10120800F968064802F0D3F9012210214FF0904006
:1012180001F07AF900BF1037BD4680BD8C00002070
:1012280080B586B000AF0346FB80B7F90630184694
:10123800FFF740F902460B46C7E904234FF00002C6
:10124800334BD7E90401FFF79FF902460B461046D6
:10125800194629A3D3E90023FFF7C0FA02460B4633
:101268001046194626A3D3E90023FFF78DF9024655
:101278000B46104619464FF00002264BFFF784F93B
:1012880002460B46104619464FF00002224BFEF765
:10129800C5FF02460B46C7E904231BA3D3E9002375
:1012A800D7E90401FFF700FC0346002B05D016A37D
:1012B800D3E90023C7E9042310E04FF000024FF000
:1012C8000003D7E90401FFF7D1FB0346002B05D043
:1012D8004FF000024FF00003C7E90423D7E90401E7
:1012E800FFF7ECFB0346FB81FB8918461837BD4620
:1012F80080BD00BFAFF3008000000000E0FFEF40BA
:101308009A9999999999234000000000C0FFEF40ED
:1013180000002040000089400000E040000000007C
:1013280080B586B000AF0346FB80B7F90630184693
:10133800FFF7C0F802460B46C7E904234FF0000246
:101348002B4BD7E90401FFF71FF902460B4610465D
:10135800194623A3D3E90023FFF740FA02460B46B8
:10136800104619464FF00002224BFFF70DF90246CE
:101378000B46104619464FF000021F4BFEF74EFF72
:1013880002460B46C7E9042317A3D3E90023D7E98C
:101398000401FFF789FB0346002B05D012A3D3E90C
:1013A8000023C7E9042310E04FF000024FF00003C8
:1013B800D7E90401FFF75AFB0346002B05D04FF08D
:1013C80000024FF00003C7E90423D7E90401FFF73F
:1013D80075FB0346FB81FB8918461837BD4680BD5F
:1013E80000000000E0FFEF4000000000C0FFEF40F9
:1013F80000407F40000069400000E040000000001D
:10140800B0B586B000AF0346FB80B7F90630184682
:10141800FFF750F802460B46C7E904233C697B698D
:1014280083F000454FF000022B4B20462946FFF77A
:10143800ABF802460B461046194623A3D3E900230E
:10144800FFF7CCF902460B46104619464FF000024A
:10145800224BFFF799F802460B46104619464FF003
:1014680000021F4BFEF7DAFE02460B46C7E90423CB
:1014780017A3D3E90023D7E90401FFF715FB0346B7
:10148800002B05D012A3D3E90023C7E9042310E0F9
:101498004FF000024FF00003D7E90401FFF7E6FA26
:1014A8000346002B05D04FF000024FF00003C7E9B8
:1014B8000423D7E90401FFF701FB0346FB81FB89FD
:1014C80018461837BD46B0BD00000000E0FFEF40E9
:1014D80000000000C0FFEF4000407F40000069406E
:1014E8000000E04080B582B000AF78607B681A6881
:1014F800054B1B689A4203D1FFF732FDFFF7CAFD7F
:1015080000BF0837BD4680BDF000002080B400AFA2
:1015180072B600BFFEE7000080B483B000AF0F4B87
:101528001B6E0E4A43F0010313660C4B1B6E03F04F
:1015380001037B607B68094B9B6D084A43F080532D
:101548009365064B9B6D03F080533B603B6800BF7F
:101558000C37BD465DF8047B704700BF00100240A1
:1015680080B59AB000AF786007F1540300221A6082
:101578005A609A60DA601A6107F110034422002168
:10158800184602F071FF7B681B68204A934239D1E4
:101598004FF480533B614FF000733B6407F1100335
:1015A800184601F069FD0346002B01D0FFF7AEFF96
:1015B800174B9B6D164A43F000739365144B9B6D54
:1015C80003F00073FB60FB68114BDB6C104A43F0BF
:1015D8000103D3640E4BDB6C03F00103BB60BB68F3
:1015E8004FF4C0537B650223BB650023FB650023D2
:1015F8003B6609237B6607F1540319464FF0904078
:1016080000F000FE00BF6837BD4680BD00640040A2
:101618000010024080B58AB000AF786007F114036B
:1016280000221A605A609A60DA601A617B681B6847
:10163800174A934228D1174B1B6E164A43F480531E
:101648001366144B1B6E03F480533B613B69114BCB
:10165800DB6C104A43F00103D3640E4BDB6C03F0E0
:101668000103FB60FB68E0237B610223BB6100236D
:10167800FB6100233B6205237B6207F114031946D3
:101688004FF0904000F0BEFD00BF2837BD4680BD3A
:10169800003001400010024080B584B000AF78608F
:1016A8007B681B680D4A934213D10D4B9B6D0C4A06
:1016B80043F0100393650A4B9B6D03F01003FB6026
:1016C800FB6800220021362000F0E9F9362000F0FE
:1016D80000FA00BF1037BD4680BD00BF00100040B3
:1016E8000010024080B400AFFEE780B400AFFEE710
:1016F80080B400AFFEE780B400AFFEE780B400AF6F
:10170800FEE780B400AF00BFBD465DF8047B7047BC
:1017180080B400AF00BFBD465DF8047B704780B45D
:1017280000AF00BFBD465DF8047B704780B500AFD1
:1017380000F09AF800BF80BD80B500AF024802F003
:101748006FFB00BF80BD00BFF000002080B400AF79
:10175800064BD3F88830054A43F47003C2F8883042
:1017680000BFBD465DF8047B704700BF00ED00E098
:101778000D4885460D480E490E4A002302E0D4580C
:10178800C4500433C4188C42F9D30B4A0B4C0023C1
:1017980001E013600432A242FBD3FFF7D7FF02F047
:1017A8003FFEFFF7ABF9FEE70080002000000020B5
:1017B8000C000020C04400080C0000205C0200203F
:1017C800FEE780B582B000AF0023FB71032000F074
:1017D8005BF90F2000F00EF80346002B02D001231E
:1017E800FB7101E0FFF798FEFB7918460837BD4604
:1017F80080BD000080B584B000AF78600023FB7323
:10180800164B1B68002B22D0154B1A68134B1B680C
:101818004FF47A71B1FBF3F3B2FBF3F3184600F01F
:1018280066F90346002B0FD17B680F2B09D80022DD
:1018380079684FF0FF3000F032F90A4A7B6813608C
:1018480007E00123FB7304E00123FB7301E001239C
:10185800FB73FB7B18461037BD4680BD080000208F
:10186800000000200400002080B400AF054B1A6877
:10187800054B1B681344034A136000BFBD465DF85F
:10188800047B7047580200200800002080B400AF95
:10189800034B1B681846BD465DF8047B704700BFC4
:1018A8005802002080B584B000AF7860FFF7EEFFE3
:1018B800B8607B68FB60FB68B3F1FF3F04D0094B5D
:1018C8001B68FA681344FB6000BFFFF7DFFF02469E
:1018D800BB68D31AFA689A42F7D800BF00BF10371E
:1018E800BD4680BD0800002080B485B000AF786098
:1018F8007B6803F00703FB600C4BDB68BB60BA68CE
:101908004FF6FF031340BB60FB681A02BB68134322
:1019180043F0BF6343F40033BB60044ABB68D36041
:1019280000BF1437BD465DF8047B704700ED00E04A
:1019380080B400AF044BDB681B0A03F007031846AA
:10194800BD465DF8047B704700ED00E080B483B0CD
:1019580000AF0346FB7197F90730002B0BDBFB79CF
:1019680003F01F02074997F907305B09012000FAC5
:1019780002F241F8232000BF0C37BD465DF8047B16
:10198800704700BF00E100E080B483B000AF0346B9
:101998003960FB7197F90730002B0ADB3B68DAB234
:1019A8000C4997F907301201D2B20B4483F800238F
:1019B8000AE03B68DAB20849FB7903F00F03043BFD
:1019C8001201D2B20B441A7600BF0C37BD465DF83F
:1019D800047B704700E100E000ED00E080B489B0CE
:1019E80000AFF860B9607A60FB6803F00703FB6139
:1019F800FB69C3F10703042B28BF0423BB61FB6900
:101A08000433062B02D9FB69033B00E000237B610A
:101A18004FF0FF32BB6902FA03F3DA43BB681A409E
:101A28007B699A404FF0FF317B6901FA03F3D94390
:101A38007B680B40134318462437BD465DF8047B8A
:101A48007047000080B582B000AF78607B68013BCA
:101A5800B3F1807F01D301230FE00A4A7B68013B81
:101A680053600F214FF0FF30FFF78EFF054B002228
:101A78009A60044B07221A60002318460837BD46AF
:101A880080BD00BF10E000E080B582B000AF786094
:101A98007868FFF729FF00BF0837BD4680BD80B5CD
:101AA80086B000AF0346B9607A60FB73FFF740FF6A
:101AB80078617A68B9687869FFF790FF024697F904
:101AC8000F3011461846FFF75FFF00BF1837BD46B5
:101AD80080BD80B582B000AF0346FB7197F907302F
:101AE8001846FFF733FF00BF0837BD4680BD80B5F5
:101AF80082B000AF78607868FFF7A4FF0346184605
:101B08000837BD4680BD000080B584B000AF78605E
:101B18007B68002B01D1012347E17B6893F85C3097
:101B2800DBB2002B06D17B68002283F85D20786841
:101B3800FFF716FD7B681B689A697B681B6822F0B3
:101B480010029A61FFF7A2FEF86012E0FFF79EFE0E
:101B58000246FB68D31A0A2B0BD97B681B6E43F02D
:101B680001027B681A667B68032283F85C200123E4
:101B78001BE17B681B689B6903F00803082BE5D011
:101B88007B681B689A697B681B6842F001029A614E
:101B9800FFF77CFEF86012E0FFF778FE0246FB686C
:101BA800D31A0A2B0BD97B681B6E43F001027B68A2
:101BB8001A667B68032283F85C200123F5E07B68C2
:101BC8001B689B6903F00103002BE5D07B681B6849
:101BD8009A697B681B6842F002029A617B681B68FD
:101BE800744A934203D1744A7B685B6813607B68CC
:101BF8001B7C012B08D17B681B689A697B681B6872
:101C080022F040029A6107E07B681B689A697B684A
:101C18001B6842F040029A617B685B7C012B08D10B
:101C28007B681B689A697B681B6842F480429A61EA
:101C380007E07B681B689A697B681B6822F480420E
:101C48009A617B689B7C012B08D17B681B689A6929
:101C58007B681B6822F480529A6107E07B681B68E6
:101C68009A697B681B6842F480529A617B681B689A
:101C78009B6923F440717B689A687B681B680A43F8
:101C88009A617B681B689A697B681B6822F0A402CA
:101C98009A617B681B681A697B681B6822F01002CE
:101CA8001A617B68DB68012B08D17B681B689A691D
:101CB8007B681B6842F004029A612CE07B68DB6851
:101CC800002B28D07B68DB68022B1CD07B681B6844
:101CD8009A697B681B6842F080029A617B681B687E
:101CE8001A697B681B6842F010021A617B68DB681E
:101CF800032B10D17B681B689A697B681B6842F0CC
:101D080020029A6107E07B681B689A697B681B68F8
:101D180042F020029A617B689B69013B5A067B6806
:101D2800DB69013B1B021A437B681B6A013B42EAE1
:101D380003017B685B69013B1A047B681B680A43E3
:101D4800DA617B689B68B3F5407F15D17B689B6A35
:101D58005A1E7B68DB6A013B1B021A437B681B6BBC
:101D6800013B1B0142EA03017B685B6A013B1A04E1
:101D78007B681B680A43DA607B681B68D3F8C0106D
:101D88007B68DA6B7B681B680A43C3F8C0207868F5
:101D980000F066F97B6800229A657B6800221A6663
:101DA8007B68012283F85C20002318461037BD4663
:101DB80080BD00BF006400400065004080B483B06F
:101DC80000AF78607B6893F85C30DBB2012B10D1F0
:101DD8007B68022283F85C207B681B689A697B68B1
:101DE8001B6822F001029A617B6800221A660023B0
:101DF80006E07B681B6E43F004027B681A660123C9
:101E080018460C37BD465DF8047B704780B586B030
:101E180000AFF860B9607A60FB6893F85C30DBB2B9
:101E2800022B2CD1FB681B68D3F8C43003F40013D1
:101E3800002B07D0FB681B6E43F40072FB681A6620
:101E4800012323E0FB681B68D3F8C4301B0C03F0A4
:101E580003037B617B697A68B968F86800F056F912
:101E6800FB681B6801217A6901FA02F2C3F8CC20E9
:101E780001227B699A40FB689A65002306E0FB68AB
:101E88001B6E43F00802FB681A66012318461837D0
:101E9800BD4680BD80B487B000AFF860B9607A6095
:101EA800FB6893F85C30FB75FB7D012B03D0FB7D51
:101EB800022B40F0C880FB681B689B6D3B61BB68C8
:101EC80003F00703002B04D03B6903F00103002B48
:101ED8003BD0BB6803F03803002B04D03B6903F008
:101EE8000203002B31D0BB6803F4E073002B04D04D
:101EF8003B6903F00403002B27D0BB6803F4F053BD
:101F0800002B04D03B6903F00803002B1DD0BB68ED
:101F180003F46043002B04D03B6903F01003002B4B
:101F280013D0BB6803F44033002B04D03B6903F0A3
:101F38002003002B09D0BB6803F47C03002B0CD0D2
:101F48003B6903F04003002B07D1FB681B68DA6D7F
:101F5800FB681B6842F00102DA65BB6803F00703FF
:101F6800002B04D03B6903F00103002B3BD1BB6875
:101F780003F03803002B04D03B6903F00203002B65
:101F880031D1BB6803F4E073002B04D03B6903F044
:101F98000403002B27D1BB6803F4F053002B04D0B3
:101FA8003B6903F00803002B1DD1BB6803F46043B1
:101FB800002B04D03B6903F01003002B13D1BB683E
:101FC80003F44033002B04D03B6903F02003002BBB
:101FD80009D1BB6803F47C03002B0CD03B6903F0E8
:101FE8004003002B07D0FB681B68DA6DFB681B6891
:101FF80042F00202DA65BB6803F08003002B09D0C7
:10200800FB681B68D3F8DC10FB681B687A680A4316
:10201800C3F8DC20BB6803F48073002B09D0FB688D
:102028001B68D3F8E010FB681B687A680A43C3F89A
:10203800E020FB681B68596DFB681B68BA680A4397
:102048005A65002306E0FB681B6E43F00202FB683A
:102058001A66012318461C37BD465DF8047B704795
:1020680080B485B000AF7860274BBB607B68BA68E6
:102078001A647B681B68D3F8803023F4F8117B68F6
:102088005B6B1A047B681B680A43C3F88020BB6833
:1020980003F170027B685A647B681B68D3F8803050
:1020A80023F070617B689B6B1A067B681B680A4388
:1020B800C3F88020BB6803F1B0027B689A64BB68F0
:1020C80003F5C4727B68DA64BB6803F518727B6831
:1020D8001A65BB6803F51E727B685A65BB68FB60AE
:1020E80005E0FB6800221A60FB680433FB60BB68EC
:1020F80003F55473FA689A42F3D300BF00BF14374C
:10210800BD465DF8047B704700A4004080B489B0E8
:1021180000AFF860B9607A603B60BB685B68002B11
:102128000AD1BB681A69BB689B681A43BB681B68FD
:102138009B041343FB610AE0BB681A69BB689B6890
:102148001A43BB681B68134343F08043FB61BB68B9
:102158001B6A1A06BB68DB691A43BB689B691A438A
:10216800BB685B691A43BB68DB6813433B61FB6868
:10217800596D3A681346DB001344DB000B44BB611E
:10218800BB69FA691A60BB690433BB61BB693A6908
:102198001A60BB690433BB6100237B6120E07B6963
:1021A80003337A6813441B781A067B69023379680B
:1021B8000B441B781B041A437B69013379680B4471
:1021C8001B781B02134379687A690A4412781A4308
:1021D800BB691A60BB690433BB617B6904337B61EB
:1021E800BB68DB681B0C064AD35C1A467B699342C2
:1021F800D5D300BF00BF2437BD465DF8047B7047C8
:10220800A844000880B487B000AF78603960002324
:102218007B615AE13B681A6801217B6901FA03F383
:102228001340FB60FB68002B00F04C813B685B6847
:1022380003F00303012B05D03B685B6803F003033D
:10224800022B30D17B689B683B617B695B00032272
:1022580002FA03F3DB433A6913403B613B68DA68EF
:102268007B695B0002FA03F33A6913433B617B68BD
:102278003A699A607B685B683B6101227B6902FA74
:1022880003F3DB433A6913403B613B685B681B0916
:1022980003F001027B6902FA03F33A6913433B61D5
:1022A8007B683A695A603B685B6803F00303032B59
:1022B80017D07B68DB683B617B695B00032202FA0D
:1022C80003F3DB433A6913403B613B689A687B69D7
:1022D8005B0002FA03F33A6913433B617B683A698E
:1022E800DA603B685B6803F00303022B23D17B6948
:1022F800DA087B68083253F822303B617B6903F0C7
:1023080007039B000F2202FA03F3DB433A691340E9
:102318003B613B681A697B6903F007039B0002FA7B
:1023280003F33A6913433B617B69DA087B68083237
:10233800396943F822107B681B683B617B695B0045
:10234800032202FA03F3DB433A6913403B613B681B
:102358005B6803F003027B695B0002FA03F33A69E6
:1023680013433B617B683A691A603B685B6803F416
:102378004033002B00F0A6805B4B1B6E5A4A43F09B
:1023880001031366584B1B6E03F00103BB60BB6867
:10239800564A7B699B08023352F823303B617B69BC
:1023A80003F003039B000F2202FA03F3DB433A69AD
:1023B80013403B617B68B3F1904F1FD07B684C4A58
:1023C800934219D07B684B4A934213D07B684A4AA0
:1023D80093420DD07B68494A934207D07B68484AAC
:1023E800934201D105230AE0062308E0042306E00E
:1023F800032304E0022302E0012300E000237A69BA
:1024080002F00302920093403A6913433B61374953
:102418007B699B0802333A6941F82320394B9B6852
:102428003B61FB68DB433A6913403B613B685B688F
:1024380003F48013002B03D03A69FB6813433B6114
:10244800304A3B6993602F4BDB683B61FB68DB4399
:102458003A6913403B613B685B6803F40013002B47
:1024680003D03A69FB6813433B61264A3B69D36052
:10247800244B5B683B61FB68DB433A6913403B6173
:102488003B685B6803F40033002B03D03A69FB68B0
:1024980013433B611B4A3B6953601A4B1B683B6102
:1024A800FB68DB433A6913403B613B685B6803F4B4
:1024B8008033002B03D03A69FB6813433B61114A10
:1024C8003B6913607B6901337B613B681A687B69F0
:1024D80022FA03F3002B7FF49DAE00BF00BF1C3728
:1024E800BD465DF8047B70470010024000000140C3
:1024F8000004004800080048000C0048001000488C
:10250800001400480004014080B483B000AF786034
:102518000B467B8013467B707B78002B03D07A8830
:102528007B689A6102E07A887B689A6200BF0C3700
:10253800BD465DF8047B704780B485B000AF786015
:102548007B68002B41D14B4B1B6803F4C063B3F588
:10255800806F31D1474BD3F88030464A23F48073DB
:10256800C2F88030434B1B6823F4C063414A43F4EC
:1025780000731360404B1B68322202FB03F33F4A8F
:10258800A2FB03239B0C0133FB6002E0FB68013BC9
:10259800FB60384B5B6903F48063B3F5806F02D14D
:1025A800FB68002BF2D1334B5B6903F48063B3F50E
:1025B800806F58D1032357E02E4BD3F880302D4A33
:1025C80023F48073C2F880304DE07B68B3F5007F58
:1025D80041D1284B1B6803F4C063B3F5806F31D138
:1025E800244BD3F88030234A43F48073C2F88030F8
:1025F800204B1B6823F4C0631E4A43F40073136026
:102608001D4B1B68322202FB03F31C4AA2FB032367
:102618009B0C0133FB6002E0FB68013BFB60154B40
:102628005B6903F48063B3F5806F02D1FB68002B0C
:10263800F2D1104B5B6903F48063B3F5806F12D15C
:10264800032311E00B4BD3F880300A4A43F480731C
:10265800C2F8803007E0074B1B6823F4C063054AC3
:1026680043F480631360002318461437BD465DF8B1
:10267800047B7047007000400000002083DE1B438D
:1026880080B588B000AF78607B68002B01D101234A
:1026980006E37B681B6803F00103002B75D0974B9A
:1026A8009B6803F00C03BB61944BDB6803F00303E6
:1026B8007B61BB690C2B02D17B69032B02D0BB6900
:1026C800082B0BD18D4B1B6803F40033002B5BD018
:1026D8007B685B68002B57D10123E1E27B685B686C
:1026E800B3F5803F06D1854B1B68844A43F4803399
:1026F80013601DE07B685B68B3F5A02F0CD17F4B9E
:102708001B687E4A43F4802313607C4B1B687B4A1A
:1027180043F4803313600BE0784B1B68774A23F44B
:1027280080331360754B1B68744A23F4802313604D
:102738007B685B68002B13D0FFF7A8F8386108E0C6
:10274800FFF7A4F802463B69D31A642B01D9032387
:10275800A6E26A4B1B6803F40033002BF0D014E0A8
:10276800FFF794F8386108E0FFF790F802463B69F4
:10277800D31A642B01D9032392E2604B1B6803F43C
:102788000033002BF0D100E000BF7B681B6803F02A
:102798000203002B75D0594B9B6803F00C03BB61F7
:1027A800564BDB6803F003037B61BB690C2B02D13A
:1027B8007B69022B02D0BB69042B1FD14F4B1B68CE
:1027C80003F48063002B05D07B68DB68002B01D104
:1027D800012365E2494B5B6823F0FE427B681B6975
:1027E8001B06464913434B60454B1B681846FFF7C9
:1027F80001F80346002B43D0012351E27B68DB68D4
:10280800002B23D03D4B1B683C4A43F48073136074
:10281800FFF73CF8386108E0FFF738F802463B69F3
:10282800D31A022B01D903233AE2344B1B6803F471
:102838008063002BF0D0314B5B6823F0FE427B684D
:102848001B691B062D4913434B601AE02B4B1B6871
:102858002A4A23F480731360FFF718F8386108E0F8
:10286800FFF714F802463B69D31A022B01D9032358
:1028780016E2224B1B6803F48063002BF0D100E0C2
:1028880000BF7B681B6803F00803002B41D07B68FE
:102898005B69002B1CD0194BD3F89430174A43F0CE
:1028A8000103C2F89430FEF7F1FF386108E0FEF743
:1028B800EDFF02463B69D31A022B01D90323EFE14E
:1028C8000E4BD3F8943003F00203002BEFD020E036
:1028D8000A4BD3F89430094A23F00103C2F8943024
:1028E800FEF7D4FF38610DE0FEF7D0FF02463B69E2
:1028F800D31A022B06D90323D2E100BF00100240ED
:10290800040000208C4BD3F8943003F00203002B12
:10291800EAD17B681B6803F00403002B00F0A68053
:102928000023FB77844B9B6D03F08053002B01D170
:10293800012300E00023002B0DD07F4B9B6D7E4AC6
:1029480043F0805393657C4B9B6D03F08053FB6091
:10295800FB680123FB77794B1B6803F48073002B1A
:1029680018D1764B1B68754A43F480731360FEF7E1
:102978008DFF386108E0FEF789FF02463B69D31AEC
:10298800022B01D903238BE16C4B1B6803F4807382
:10299800002BF0D07B689B68012B08D1664BD3F8DD
:1029A8009030654A43F00103C2F8903024E07B6818
:1029B8009B68052B10D1604BD3F890305E4A43F0EA
:1029C8000403C2F890305C4BD3F890305A4A43F075
:1029D8000103C2F890300FE0574BD3F89030564AB5
:1029E80023F00103C2F89030534BD3F89030524A89
:1029F80023F00403C2F890307B689B68002B16D044
:102A0800FEF744FF38610AE0FEF740FF02463B69E3
:102A1800D31A41F28832934201D9032340E1464B4D
:102A2800D3F8903003F00203002BEDD015E0FEF749
:102A38002DFF38610AE0FEF729FF02463B69D31AE9
:102A480041F28832934201D9032329E13A4BD3F862
:102A5800903003F00203002BEDD1FB7F012B05D151
:102A6800354B9B6D344A23F0805393657B681B6814
:102A780003F02003002B3CD07B689B69002B1CD003
:102A88002D4BD3F898302C4A43F00103C2F8983004
:102A9800FEF7FCFE386108E0FEF7F8FE02463B69E7
:102AA800D31A022B01D90323FAE0234BD3F8983029
:102AB80003F00203002BEFD01BE01F4BD3F8983034
:102AC8001D4A23F00103C2F89830FEF7DFFE386193
:102AD80008E0FEF7DBFE02463B69D31A022B01D958
:102AE8000323DDE0144BD3F8983003F00203002BE6
:102AF800EFD17B68DB69002B00F0D1800E4B9B681F
:102B080003F00C030C2B00F08B807B68DB69022B35
:102B18005ED1094B1B68084A23F080731360FEF7E7
:102B2800B5FE38610CE0FEF7B1FE02463B69D31AE8
:102B3800022B05D90323B3E00010024000700040C7
:102B4800594B1B6803F00073002BECD1564BDA6825
:102B5800564B13407A68116A7A68526A013A120130
:102B680011437A68926A120211437A68126B52080A
:102B7800013A520511437A68526B5208013A5206DB
:102B880011437A68D26AD2060A4347491343CB6095
:102B9800454B1B68444A43F080731360424BDB6823
:102BA800414A43F08073D360FEF770FE386108E055
:102BB800FEF76CFE02463B69D31A022B01D90323A8
:102BC8006EE0394B1B6803F00073002BF0D066E011
:102BD800354B1B68344A23F080731360324BDB6833
:102BE800314A23F00303D3602F4BDB682E4A23F0CE
:102BF800887323F48033D360FEF748FE386108E019
:102C0800FEF744FE02463B69D31A022B01D903237F
:102C180046E0254B1B6803F00073002BF0D13EE023
:102C28007B68DB69012B01D1012339E01E4BDB688E
:102C38007B617B6903F003027B681B6A9A422CD193
:102C48007B6903F0F0027B685B6A013B1B019A42D7
:102C580023D17B6903F4FE427B689B6A1B029A427C
:102C68001BD17B6903F078427B68DB6ADB069A42FA
:102C780013D17B6903F4C0027B681B6B5B08013BC3
:102C88005B059A4209D17B6903F0C0627B685B6B84
:102C98005B08013B5B069A4201D0012300E0002358
:102CA80018462037BD4680BD001002400C809F01A9
:102CB80080B586B000AF7860396000237B617B689F
:102CC800002B01D101231EE1914B1B6803F00F0378
:102CD8003A689A4210D98E4B1B6823F00F028C4930
:102CE8003B6813430B608A4B1B6803F00F033A6879
:102CF8009A4201D0012306E17B681B6803F00103B7
:102D0800002B73D07B685B68032B29D1814B1B6830
:102D180003F00073002B01D10123F4E000F066F901
:102D280038613B697C4A93423FD97A4B9B6803F0F0
:102D3800F003002B09D07B681B6803F00203002B0B
:102D480033D07B689B68002B2FD1724B9B6823F094
:102D5800F003704A43F08003936080237B6124E092
:102D68007B685B68022B07D16A4B1B6803F400334E
:102D7800002B09D10123C6E0664B1B6803F480636E
:102D8800002B01D10123BEE000F0CEF838613B6989
:102D9800614A934209D95F4B9B6823F0F0035D4A6F
:102DA80043F08003936080237B615A4B9B6823F038
:102DB80003027B685B68574913438B60FEF766FD27
:102DC800F8600AE0FEF762FD0246FB68D31A41F29A
:102DD8008832934201D9032395E04E4B9B6803F058
:102DE8000C027B685B689B009A42EBD17B681B688E
:102DF80003F00203002B23D07B681B6803F0040355
:102E0800002B05D0434B9B68424A43F4E063936030
:102E18007B681B6803F00803002B07D03D4B9B68B9
:102E280023F47C533B4A43F4E0639360394B9B683B
:102E380023F0F0027B689B68364913438B6008E0F7
:102E48007B69802B05D1334B9B68324A23F0F00312
:102E580093602F4B1B6803F00F033A689A421DD208
:102E68002B4B1B6823F00F0229493B6813430B6067
:102E7800FEF70CFDF8600AE0FEF708FD0246FB6865
:102E8800D31A41F28832934201D903233BE0204B05
:102E98001B6803F00F033A689A42EDD17B681B6800
:102EA80003F00403002B08D01A4B9B6823F4E0625C
:102EB8007B68DB68174913438B607B681B6803F0EA
:102EC8000803002B09D0134B9B6823F460527B68DE
:102ED8001B69DB000F4913438B6000F025F802469D
:102EE8000C4B9B681B0903F00F030C49CB5C03F0E8
:102EF8001F0322FA03F30A4A13600A4B1B68184699
:102F0800FEF778FC034618461837BD4680BD00BF5B
:102F1800002002400010024000B4C4049844000895
:102F2800000000200400002080B487B000AF2C4BC4
:102F38009B6803F00C03042B02D12A4B3B6147E04A
:102F4800274B9B6803F00C03082B02D1264B3B61EF
:102F58003EE0234B9B6803F00C030C2B36D1204B2F
:102F6800DB6803F00303FB601D4BDB681B0903F000
:102F78000F030133BB60FB68032B0CD11A4ABB68F3
:102F8800B2FBF3F3164AD268120A02F07F0202FB80
:102F980003F37B610CE0134ABB68B2FBF3F3104AFE
:102FA800D268120A02F07F0202FB03F37B6100BFC2
:102FB8000B4BDB685B0E03F0030301335B007B60A4
:102FC8007A697B68B2FBF3F33B6101E000233B6164
:102FD8003B6918461C37BD465DF8047B704700BF47
:102FE800001002400024F40000127A0080B487B078
:102FF80000AF1E4BDB6803F003033B611B4BDB6830
:103008001B0903F00F030133FB603B69032B0CD151
:10301800174AFB68B2FBF3F3144AD268120A02F0AB
:103028007F0202FB03F37B610CE0124AFB68B2FBF0
:10303800F3F30E4AD268120A02F07F0202FB03F38E
:103048007B6100BF094BDB685B0E03F003030133B0
:103058005B00BB607A69BB68B2FBF3F37B607B689B
:1030680018461C37BD465DF8047B704700100240C7
:1030780000127A000024F40080B586B000AF7860B2
:103088000023FB740023BB747B681B6803F40023D4
:10309800002B00F0988000237B74434B9B6D03F05A
:1030A8008053002B0DD1404B9B6D3F4A43F080531A
:1030B80093653D4B9B6D03F08053BB60BB68012358
:1030C8007B743A4B1B68394A43F480731360FEF7EC
:1030D800DDFBF86009E0FEF7D9FB0246FB68D31A6E
:1030E800022B02D90323FB7405E0304B1B6803F461
:1030F8008073002BEFD0FB7C002B59D12A4BD3F8DF
:10310800903003F440737B617B69002B1ED07B6891
:103118001B6C7A699A4219D0234BD3F8903023F468
:1031280040737B61204BD3F890301F4A43F48033BF
:10313800C2F890301C4BD3F890301B4A23F48033EC
:10314800C2F89030184A7B69C2F890307B6903F066
:103158000103002B16D0FEF799FBF8600BE0FEF791
:1031680095FB0246FB68D31A41F28832934202D992
:103178000323FB7406E00C4BD3F8903003F00203F2
:10318800002BECD0FB7C002B0BD1074BD3F89030F5
:1031980023F440727B681B6C03491343C1F89030D9
:1031A80008E0FB7CBB7405E00010024000700040A2
:1031B800FB7CBB747B7C012B05D1A64B9B6DA54A80
:1031C80023F0805393657B681B6803F00103002B91
:1031D8000AD0A04BD3F8883023F003027B685B68E1
:1031E8009C491343C1F888307B681B6803F00203CD
:1031F800002B0AD0974BD3F8883023F00C027B6859
:103208009B6894491343C1F888307B681B6803F0B6
:103218000403002B0AD08F4BD3F8883023F03002F8
:103228007B68DB688B491343C1F888307B681B686F
:1032380003F00803002B0AD0864BD3F8883023F01C
:10324800C0027B681B6983491343C1F888307B68D7
:103258001B6803F02003002B0AD07E4BD3F888307C
:1032680023F440627B685B697A491343C1F888306C
:103278007B681B6803F04003002B0AD0754BD3F81A
:10328800883023F440527B689B6972491343C1F824
:1032980088307B681B6803F08003002B0AD06D4BD5
:1032A800D3F8883023F440427B68DB6969491343CB
:1032B800C1F888307B681B6803F48073002B0AD040
:1032C800644BD3F8883023F440327B681B6A614929
:1032D8001343C1F888307B681B6803F40073002B24
:1032E8000AD05C4BD3F8883023F440227B685B6AB1
:1032F80058491343C1F888307B681B6803F480631E
:10330800002B15D0534BD3F8883023F440127B6838
:103318009B6A50491343C1F888307B689B6AB3F5B0
:10332800801F05D14B4BDB684A4A43F48013D360B6
:103338007B681B6803F40063002B15D0454BD3F85A
:10334800883023F440027B68DB6A42491343C1F8A2
:1033580088307B68DB6AB3F5800F05D13D4BDB68AD
:103368003C4A43F48013D3607B681B6803F48053A2
:10337800002B15D0374BD3F8883023F040727B6888
:103388001B6B34491343C1F888307B681B6BB3F15E
:10339800807F05D12F4BDB682E4A43F48013D3601E
:1033A8007B681B6803F40053002B15D0294BD3F816
:1033B800883023F040627B685B6B26491343C1F871
:1033C80088307B685B6BB3F1006F05D1214BDB68FC
:1033D800204A43F48013D3607B681B6803F480435E
:1033E800002B15D01B4BD3F8883023F040627B6844
:1033F8009B6B18491343C1F888307B689B6BB3F10A
:10340800006F05D1134BDB68124A43F48013D36075
:103418007B681B6803F40043002B15D00D4BD3F8D1
:10342800883023F040527B68DB6B0A491343C1F8AC
:1034380088307B68DB6BB3F1805F05D1054BDB68B7
:10344800044A43F48033D360BB7C18461837BD4622
:1034580080BD00BF0010024080B584B000AF786026
:103468007B68002B01D101239DE07B685B6A002B00
:1034780008D17B685B68B3F5827F09D07B6800223E
:10348800DA6105E07B6800221A617B6800225A61D4
:103498007B6800229A627B6893F85D30DBB2002B70
:1034A80006D17B68002283F85C207868FEF7B2F8C2
:1034B8007B68022283F85D207B681B681A687B683A
:1034C8001B6822F040021A607B68DB68B3F5E06F86
:1034D80002D90023FB6002E04FF48053FB607B6855
:1034E800DB68B3F5706F07D07B68DB68B3F5E06F16
:1034F80002D07B6800229A627B685B6803F4827260
:103508007B689B6803F404431A437B681B6903F0D8
:1035180002031A437B685B6903F001031A437B6863
:103528009B6903F400731A437B68DB6903F0380373
:103538001A437B681B6A03F0800342EA03017B6835
:103548009B6A03F400527B681B680A431A607B6815
:103558009B691B0C03F004027B685B6A03F0100391
:103568001A437B685B6B03F008031A437B68DB68CC
:1035780003F4706342EA0301FB6803F480527B683A
:103588001B680A435A607B681B68DA697B681B689A
:1035980022F40062DA617B6800221A667B680122E5
:1035A80083F85D20002318461037BD4680BD80B5DE
:1035B8008AB000AFF860B9607A607B8001237B62D3
:1035C800002387F82330FB6893F85C30012B01D186
:1035D8000223FBE1FB68012283F85C20FEF756F921
:1035E800F861FB6893F85D30FB76FB685B687B618C
:1035F8007B887B827B883B82FB7E012B0ED07B699C
:10360800B3F5827F06D1FB689B68002B02D1FB7E55
:10361800042B03D0022387F82330CDE1BB68002BAD
:1036280005D07B68002B02D07B88002B03D10123B7
:1036380087F82330C0E1FB6893F85D30DBB2042BD8
:1036480003D0FB68052283F85D20FB6800221A6618
:10365800FB687A681A64FB687A88A3F84620FB68D6
:103668007A88A3F84420FB68BA689A63FB687A886A
:10367800DA87FB687A889A87FB680022DA64FB6835
:1036880000221A65FB68DB68B3F5E06F02D83B8A55
:10369800012B08D9FB681B685A68FB681B6822F471
:1036A80080525A6007E0FB681B685A68FB681B6811
:1036B80042F480525A60FB681B681B6803F04003A1
:1036C800402B07D0FB681B681A68FB681B6842F030
:1036D80040021A60FB68DB68B3F5E06F7CD9FB68D1
:1036E8005B68002B02D07B8A012B69D1FB689B6B3E
:1036F8001A88FB681B68DA60FB689B6B9A1CFB687E
:103708009A63FB68DB8F9BB2013B9AB2FB68DA874E
:1037180056E0FB681B689B6803F00203022B1BD171
:10372800FB68DB8F9BB2002B16D07B6A012B13D171
:10373800FB689B6B1A88FB681B68DA60FB689B6BED
:103748009A1CFB689A63FB68DB8F9BB2013B9AB2B9
:10375800FB68DA8700237B62FB681B689B6803F0C1
:103768000103012B1CD1FB68B3F846309BB2002B38
:1037780016D0FB681B68DA68FB681B6C92B21A806B
:10378800FB681B6C9A1CFB681A64FB68B3F846302C
:103798009BB2013B9AB2FB68A3F8462001237B62E7
:1037A800FEF774F80246FB69D31A3A6B9A4207D8B7
:1037B8003B6BB3F1FF3F03D0032387F82330FBE0D3
:1037C800FB68DB8F9BB2002BA3D1FB68B3F84630B4
:1037D8009BB2002B9DD1DFE0FB685B68002B03D018
:1037E8007B8A012B40F0CB80FB68DB8F9BB2012BDF
:1037F80012D9FB689B6B1A88FB681B68DA60FB6848
:103808009B6B9A1CFB689A63FB68DB8F9BB2023B3D
:103818009AB2FB68DA87B2E0FB689A6BFB681B68B0
:103828000C3312781A70FB689B6B5A1CFB689A63FE
:10383800FB68DB8F9BB2013B9AB2FB68DA879EE09C
:10384800FB681B689B6803F00203022B34D1FB68FA
:10385800DB8F9BB2002B2FD07B6A012B2CD1FB680E
:10386800DB8F9BB2012B12D9FB689B6B1A88FB6814
:103878001B68DA60FB689B6B9A1CFB689A63FB68A1
:10388800DB8F9BB2023B9AB2FB68DA8712E0FB68D7
:103898009A6BFB681B680C3312781A70FB689B6B79
:1038A8005A1CFB689A63FB68DB8F9BB2013B9AB298
:1038B800FB68DA8700237B62FB681B689B6803F060
:1038C8000103012B48D1FB68B3F846309BB2002BAB
:1038D80042D0FB68B3F846309BB2012B23D9FB6872
:1038E8001B68DA68FB681B6C92B21A80FB681B6C59
:1038F8009A1CFB681A64FB68B3F846309BB2023B1B
:103908009AB2FB68A3F84620FB68B3F846309BB22E
:10391800012B1FD8FB681B685A68FB681B6842F4B8
:1039280080525A6016E0FB681B6803F10C02FB68C2
:103938001B6C1278D2B21A70FB681B6C5A1CFB689D
:103948001A64FB68B3F846309BB2013B9AB2FB6835
:10395800A3F8462001237B62FDF798FF0246FB6926
:10396800D31A3A6B9A4203D83B6BB3F1FF3F02D1AB
:103978003B6B002B03D1032387F823301CE0FB6843
:10398800DB8F9BB2002B7FF45BAFFB68B3F846304C
:103998009BB2002B7FF454AFFA69396BF86800F0DA
:1039A80037F90346002B06D0012387F82330FB683C
:1039B80020221A6600E000BFFB68012283F85D2020
:1039C800FB68002283F85C2097F8233018462837D4
:1039D800BD4680BD80B588B000AFF860B9603B6077
:1039E8001346FB71FDF752FF0246BB6A9B1A3A6801
:1039F8001344FB61FDF74AFFB861394B1B685B0153
:103A08001B0DFA6902FB03F37B6154E03B68B3F1D9
:103A1800FF3F50D0FDF73AFF0246BB69D31AFA6957
:103A28009A4202D9FB69002B3DD1FB681B685A6892
:103A3800FB681B6822F0E0025A60FB685B68B3F51C
:103A4800827F11D1FB689B68B3F5004F04D0FB68F7
:103A58009B68B3F5806F07D1FB681B681A68FB6821
:103A68001B6822F040021A60FB689B6AB3F5005F8E
:103A78000FD1FB681B681A68FB681B6822F40052A8
:103A88001A60FB681B681A68FB681B6842F40052DE
:103A98001A60FB68012283F85D20FB68002283F826
:103AA8005C20032317E07B69002B01D10023FB6115
:103AB8007B69013B7B61FB681B689A68BB681340A4
:103AC800BA689A420CBF01230023DBB21A46FB797D
:103AD8009A429BD1002318462037BD4680BD00BFBF
:103AE8000000002080B58AB000AFF860B9607A6045
:103AF8003B600023FB75FDF7C9FE02463B6B9B1A32
:103B08003A6813447B62FDF7C1FE3862FB681B68A4
:103B18000C33FB613D4B1A6813469B001344DA00D3
:103B2800D31A1B0D7A6A02FB03F3BB6160E0BB6822
:103B3800B3F5C06F07D17B68002B04D1FB691B78F4
:103B4800DBB2FB75FB7D3B68B3F1FF3F50D0FDF75F
:103B58009DFE02463B6AD31A7A6A9A4202D97B6A68
:103B6800002B3DD1FB681B685A68FB681B6822F074
:103B7800E0025A60FB685B68B3F5827F11D1FB688D
:103B88009B68B3F5004F04D0FB689B68B3F5806F62
:103B980007D1FB681B681A68FB681B6822F04002A3
:103BA8001A60FB689B6AB3F5005F0FD1FB681B685E
:103BB8001A68FB681B6822F400521A60FB681B68CD
:103BC8001A68FB681B6842F400521A60FB680122FD
:103BD80083F85D20FB68002283F85C20032310E053
:103BE800BB69002B01D100237B62BB69013BBB6130
:103BF800FB681B689A68BB6813407A689A4296D13A
:103C0800002318462837BD4680BD00BF00000020AD
:103C180080B586B002AFF860B9607A607B680093BF
:103C2800BB6800224FF4C051F868FFF75BFF0346FA
:103C3800002B07D0FB681B6E43F02002FB681A6656
:103C4800032327E07B680093BB6800228021F86883
:103C5800FFF7C0FE0346002B07D0FB681B6E43F03E
:103C68002002FB681A66032314E07B680093BB6894
:103C780000224FF4C061F868FFF734FF0346002BB9
:103C880007D0FB681B6E43F02002FB681A6603230B
:103C980000E0002318461037BD4680BD80B582B0CD
:103CA80000AF78607B68002B01D1012349E07B6875
:103CB80093F83D30DBB2002B06D17B68002283F8F5
:103CC8003C207868FDF7E8FC7B68022283F83D20F9
:103CD8007B681A687B6804331946104600F048FA76
:103CE8007B68012283F848207B68012283F83E2004
:103CF8007B68012283F83F207B68012283F84020FB
:103D08007B68012283F841207B68012283F84220E6
:103D18007B68012283F843207B68012283F84420D2
:103D28007B68012283F845207B68012283F84620BE
:103D38007B68012283F847207B68012283F83D20B5
:103D4800002318460837BD4680BD000080B485B002
:103D580000AF78607B6893F83D30DBB2012B01D06F
:103D680001234AE07B68022283F83D207B681B68B8
:103D7800DA687B681B6842F00102DA607B681B68BE
:103D8800214A934218D07B681B68B3F1804F13D047
:103D98007B681B681D4A93420ED07B681B681C4ACF
:103DA800934209D07B681B681A4A934204D07B6807
:103DB8001B68194A934215D17B681B689A68174B90
:103DC8001340FB60FB68062B15D0FB68B3F5803FFA
:103DD80011D07B681B681A687B681B6842F0010277
:103DE8001A6008E07B681B681A687B681B6842F0E9
:103DF80001021A6000E000BF002318461437BD46D0
:103E08005DF8047B704700BF002C014000040040AF
:103E18000008004000340140004001400700010054
:103E280080B582B000AF78607B681B681B6903F0BF
:103E38000203022B22D17B681B68DB6803F00203B4
:103E4800022B1BD17B681B686FF002021A617B682A
:103E580001221A777B681B689B6903F00303002B18
:103E680003D0786800F065F905E0786800F057F944
:103E7800786800F068F97B6800221A777B681B680D
:103E88001B6903F00403042B22D17B681B68DB68E1
:103E980003F00403042B1BD17B681B686FF004023A
:103EA8001A617B6802221A777B681B689B6903F496
:103EB8004073002B03D0786800F03BF905E0786880
:103EC80000F02DF9786800F03EF97B6800221A7737
:103ED8007B681B681B6903F00803082B22D17B68E9
:103EE8001B68DB6803F00803082B1BD17B681B6881
:103EF8006FF008021A617B6804221A777B681B68D6
:103F0800DB6903F00303002B03D0786800F011F994
:103F180005E0786800F003F9786800F014F97B6828
:103F280000221A777B681B681B6903F01003102BAB
:103F380022D17B681B68DB6803F01003102B1BD1B0
:103F48007B681B686FF010021A617B6808221A7779
:103F58007B681B68DB6903F44073002B03D0786827
:103F680000F0E7F805E0786800F0D9F8786800F024
:103F7800EAF87B6800221A777B681B681B6903F0E4
:103F88000103012B0ED17B681B68DB6803F001037A
:103F9800012B07D17B681B686FF001021A617868F2
:103FA800FDF7A0FA7B681B681B6903F08003802B70
:103FB8000ED17B681B68DB6803F08003802B07D178
:103FC8007B681B686FF080021A61786800F0ECF972
:103FD8007B681B681B6903F48073B3F5807F0ED17F
:103FE8007B681B68DB6803F08003802B07D17B6844
:103FF8001B686FF480721A61786800F0DFF97B68DB
:104008001B681B6903F04003402B0ED17B681B68BB
:10401800DB6803F04003402B07D17B681B686FF017
:1040280040021A61786800F098F87B681B681B6981
:1040380003F02003202B0ED17B681B68DB6803F09C
:104048002003202B07D17B681B686FF020021A61C0
:10405800786800F09FF97B681B681B6903F480137C
:10406800B3F5801F0FD17B681B68DB6803F48013EE
:10407800B3F5801F07D17B681B686FF480121A6143
:10408800786800F0A5F97B681B681B6903F40013C6
:10409800B3F5001F0FD17B681B68DB6803F40013BE
:1040A800B3F5001F07D17B681B686FF400121A6113
:1040B800786800F097F97B681B681B6903F4800334
:1040C800B3F5800F0FD17B681B68DB6803F48003AE
:1040D800B3F5800F07D17B681B686FF480021A6103
:1040E800786800F089F97B681B681B6903F4000392
:1040F800B3F5000F0FD17B681B68DB6803F400037E
:10410800B3F5000F07D17B681B686FF400021A61D2
:10411800786800F07BF900BF0837BD4680BD80B4E1
:1041280083B000AF786000BF0C37BD465DF8047BF4
:10413800704780B483B000AF786000BF0C37BD46CD
:104148005DF8047B704780B483B000AF786000BF2F
:104158000C37BD465DF8047B704780B483B000AF70
:10416800786000BF0C37BD465DF8047B70470000DF
:1041780080B485B000AF786039607B681B68FB60ED
:104188007B683C4A93420FD07B68B3F1804F0BD0D9
:104198007B68394A934207D07B68384A934203D0F8
:1041A8007B68374A934208D1FB6823F07003FB60B1
:1041B8003B685B68FA681343FB607B682D4A93424F
:1041C8001BD07B68B3F1804F17D07B682A4A934293
:1041D80013D07B68294A93420FD07B68284A9342C0
:1041E8000BD07B68274A934207D07B68264A9342C4
:1041F80003D07B68254A934208D1FB6823F44073B7
:10420800FB603B68DB68FA681343FB60FB6823F0DC
:1042180080023B685B691343FB607B68FA681A603D
:104228003B689A687B68DA623B681A687B689A62BE
:104238007B68104A93420FD07B68114A93420BD097
:104248007B68104A934207D07B680F4A934203D099
:104258007B680E4A934203D13B681A697B681A63EC
:104268007B6801225A6100BF1437BD465DF8047BA4
:10427800704700BF002C01400004004000080040C7
:104288000034014000400140004401400048014022
:1042980080B485B000AF786039607B6893F83C30B3
:1042A800012B01D1022365E07B68012283F83C20C1
:1042B8007B68022283F83D207B681B685B68FB6093
:1042C8007B681B689B68BB607B681B682C4A9342B1
:1042D80004D07B681B682B4A934208D1FB6823F4FF
:1042E8007003FB603B685B68FA681343FB60FB681C
:1042F80023F0007323F07003FB603B681B68FA68C7
:104308001343FB607B681B68FA685A607B681B680C
:104318001B4A934218D07B681B68B3F1804F13D0B7
:104328007B681B68184A93420ED07B681B68174A43
:10433800934209D07B681B68124A934204D07B6879
:104348001B68134A93420CD1BB6823F08003BB60FF
:104358003B689B68BA681343BB607B681B68BA6894
:104368009A607B68012283F83D207B68002283F8ED
:104378003C20002318461437BD465DF8047B70477F
:10438800002C0140003401400004004000080040B7
:104398000040014080B483B000AF786000BF0C37A4
:1043A800BD465DF8047B704780B483B000AF786089
:1043B80000BF0C37BD465DF8047B704780B483B0FE
:1043C80000AF786000BF0C37BD465DF8047B7047CE
:1043D80080B483B000AF786000BF0C37BD465DF88D
:1043E800047B704780B483B000AF786000BF0C379F
:1043F800BD465DF8047B704780B483B000AF786039
:1044080000BF0C37BD465DF8047B704780B483B0AD
:1044180000AF786000BF0C37BD465DF8047B70477D
:1044280070B50D4D0D4C641BA4100026A64209D191
:104438000B4D0C4C00F020F8641BA4100026A6427B
:1044480005D170BD55F8043B98470136EEE755F89D
:10445800043B98470136F2E7B8440008B84400081E
:10446800B8440008BC44000802440346934200D103
:10447800704703F8011BF9E7F8B500BFF8BC08BCA2
:104488009E467047F8B500BFF8BC08BC9E4670470A
:1044980000000000000000000102030406070809EC
:1044A8000001020304050607080C10141820304008
:0444B800FD010008FA
:0444BC00D90100081A
:0C44C0000024F4001000000001000000C7
:04000005080017795F
:00000001FF
